:020000040800F2
:1000000000000120ED5C0008E15B0008E35B0008F4
:10001000E55B0008E75B0008E95B00080000000002
:10002000000000000000000000000000EB5B000882
:10003000ED5B000800000000EF5B0008F15B0008CA
:10004000355D0008355D0008355D0008355D000848
:10005000355D0008355D0008355D0008355D000838
:10006000355D0008355D0008355D0008355D000828
:10007000355D0008355D0008355D0008355D000818
:10008000355D0008355D0008355D0008355D000808
:10009000355D0008355D0008355D0008355D0008F8
:1000A000355D0008355D0008355D0008355D0008E8
:1000B000355D0008355D0008F55B0008355D00081A
:1000C000355D0008355D0008355D0008355D0008C8
:1000D000355D0008355D0008355D0008355D0008B8
:1000E000355D0008355D0008355D0008355D0008A8
:1000F000355D0008355D0008355D0008355D000898
:10010000355D0008355D0008355D0008355D000887
:10011000355D0008355D0008355D0008355D000877
:10012000355D0008355D0008355D0008355D000867
:1001300000000000000000000000000000000000BF
:1001400000000000000000000000000000000000AF
:10015000000000000000000000000000000000009F
:10016000000000000000000000000000000000008F
:10017000000000000000000000000000000000007F
:10018000000000000000000000000000000000006F
:10019000000000000000000000000000000000005F
:1001A000000000000000000000000000000000004F
:1001B000000000000000000000000000000000003F
:1001C000000000000000000000000000000000002F
:1001D000000000000000000000000000000000001F
:0401E0005FF8E0F1F3
:1001E80010B5054C237833B9044B13B10448AFF369
:1001F80000800123237010BD38010020000000009A
:1002080038E3000808B5034B1BB103490348AFF3B3
:10021800008008BD000000003C01002038E3000811
:1002280047F63003038002230A0F090130323A2AC5
:1002380000D30732C25201330A2BF5D17047002987
:1002480009DA00B52D2202700130C1F1000100F079
:1002580002F8013000BD30B54FF00005056045607B
:1002680085600E4BA3FB0143DC0822000A2304FB34
:1002780003F40C1B44F030044453013511460029A3
:10028800EFD120B4013D445D425C425544540131F4
:10029800013D8D4200D0F6DC31BD0000CDCCCCCC88
:1002A80010F8012B11F8013B012A28BF9A42F7D018
:1002B800D01A7047034613F8012B002AFBD1181AED
:1002C8000138704781F0004102E000BF83F000432D
:1002D80030B54FEA41044FEA430594EA050F08BFD9
:1002E80090EA020F1FBF54EA000C55EA020C7FEA9D
:1002F800645C7FEA655C00F0E2804FEA5454D4EB1A
:100308005555B8BF6D420CDD2C4480EA020281EAE3
:10031800030382EA000083EA010180EA020281EA1B
:100328000303362D88BF30BD11F0004F4FEA01316D
:100338004FF4801C4CEA113102D0404261EB41017C
:1003480013F0004F4FEA03334CEA133302D0524202
:1003580063EB430394EA050F00F0A780A4F10104BE
:10036800D5F1200E0DDB02FA0EFC22FA05F28018F8
:1003780041F1000103FA0EF2801843FA05F35941DE
:100388000EE0A5F120050EF1200E012A03FA0EFC5D
:1003980028BF4CF0020C43FA05F3C01851EBE37187
:1003A80001F0004507D54FF0000EDCF1000C7EEBA4
:1003B80000006EEB0101B1F5801F1BD3B1F5001FE2
:1003C8000CD349085FEA30004FEA3C0C04F1010401
:1003D8004FEA445212F5800F80F09A80BCF1004F2A
:1003E80008BF5FEA500C50F1000041EB045141EAAC
:1003F800050130BD5FEA4C0C404141EB0101013C75
:1004080028BFB1F5801FE9D291F0000F04BF014663
:100418000020B1FA81F308BF2033A3F10B03B3F135
:1004280020020CDA0C3208DD02F1140CC2F10C02C5
:1004380001FA0CF021FA02F10CE002F11402D8BF23
:10044800C2F1200C01FA02F120FA0CFCDCBF41EAEF
:100458000C019040E41AA2BF01EB0451294330BDBE
:100468006FEA04041F3C1CDA0C340EDC04F114049B
:10047800C4F1200220FA04F001FA02F340EA030072
:1004880021FA04F345EA030130BDC4F10C04C4F1B8
:10049800200220FA02F001FA04F340EA0300294698
:1004A80030BD21FA04F0294630BD94F0000F83F4E2
:1004B800801306BF81F480110134013D4EE77FEAC5
:1004C800645C18BF7FEA655C29D094EA050F08BF11
:1004D80090EA020F05D054EA000C04BF19461046F2
:1004E80030BD91EA030F1EBF0021002030BD5FEA36
:1004F800545C05D14000494128BF41F0004130BD5E
:1005080014F580043CBF01F5801130BD01F00045B1
:1005180045F0FE4141F470014FF0000030BD7FEA24
:10052800645C1ABF194610467FEA655C1CBF0B461F
:10053800024650EA013406BF52EA033591EA030F36
:1005480041F4002130BD00BF90F0000F04BF00212E
:10055800704730B54FF4806404F132044FF0000561
:100568004FF0000150E700BF90F0000F04BF0021DA
:10057800704730B54FF4806404F1320410F0004540
:1005880048BF40424FF000013EE700BF42004FEA3B
:10059800E2014FEA31014FEA02701FBF12F07F43B8
:1005A80093F07F4F81F06051704732F07F4208BF6F
:1005B800704793F07F4F04BF41F40021704730B576
:1005C8004FF4607401F0004521F000411CE700BFC2
:1005D80050EA010208BF704730B54FF000050AE045
:1005E80050EA010208BF704730B511F0004502D546
:1005F800404261EB41014FF4806404F132045FEA48
:10060800915C3FF4D8AE4FF003025FEADC0C18BFF0
:1006180003325FEADC0C18BF033202EBDC02C2F1E2
:10062800200300FA03FC20FA02F001FA03FE40EA74
:100638000E0021FA02F11444BDE600BF70B54FF078
:10064800FF0C4CF4E06C1CEA11541DBF1CEA135556
:1006580094EA0C0F95EA0C0F00F0DEF82C4481EABE
:10066800030621EA4C5123EA4C5350EA013518BFDE
:1006780052EA033541F4801143F4801338D0A0FBCB
:1006880002CE4FF00005E1FB02E506F00042E0FB78
:1006980003E54FF00006E1FB03569CF0000F18BF7E
:1006A8004EF0010EA4F1FF04B6F5007F64F5407426
:1006B80004D25FEA4E0E6D4146EB060642EAC621B9
:1006C80041EA55514FEAC52040EA5E504FEACE2E26
:1006D800B4F1FD0C88BFBCF5E06F1ED8BEF1004F29
:1006E80008BF5FEA500E50F1000041EB045170BDA5
:1006F80006F0004646EA010140EA020081EA0301E9
:10070800B4EB5C04C2BFD4EB0C0541EA045170BDE4
:1007180041F480114FF0000E013C00F3AB8014F15E
:10072800360FDEBF002001F0004170BDC4F10004A7
:10073800203C35DA0C341BDC04F11404C4F1200528
:1007480000FA05F320FA04F001FA05F240EA020083
:1007580001F0004221F0004110EBD37021FA04F6B9
:1007680042EB06015EEA430E08BF20EAD37070BD73
:10077800C4F10C04C4F1200500FA04F320FA05F0D2
:1007880001FA04F240EA020001F0004110EBD370D4
:1007980041F100015EEA430E08BF20EAD37070BD44
:1007A800C4F1200500FA05F24EEA020E20FA04F31D
:1007B80001FA05F243EA020321FA04F001F00041CC
:1007C80021FA04F220EA020000EBD3705EEA430E3D
:1007D80008BF20EAD37070BD94F0000F0FD101F06C
:1007E8000046400041EB010111F4801F08BF013CA5
:1007F800F7D041EA060195F0000F18BF704703F0E3
:100808000046520043EB030313F4801F08BF013D69
:10081800F7D043EA0603704794EA0C0F0CEA135525
:1008280018BF95EA0C0F0CD050EA410618BF52EADF
:100838004306D1D181EA030101F000414FF00000E5
:1008480070BD50EA410606BF1046194652EA4306F3
:1008580019D094EA0C0F02D150EA013613D195EA67
:100868000C0F05D152EA03361CBF104619460AD1AF
:1008780081EA030101F0004141F0FE4141F47001B9
:100888004FF0000070BD41F0FE4141F4780170BDA9
:1008980070B54FF0FF0C4CF4E06C1CEA11541DBF0E
:1008A8001CEA135594EA0C0F95EA0C0F00F0A7F810
:1008B800A4EB050481EA030E52EA03354FEA01313D
:1008C80000F088804FEA03334FF0805545EA131350
:1008D80043EA12634FEA022245EA111545EA106518
:1008E8004FEA00260EF000419D4208BF964244F1AF
:1008F800FD0404F5407402D25B084FEA3202B61ACE
:1009080065EB03055B084FEA32024FF480104FF4A1
:10091800002CB6EB020E75EB030E22BFB61A754615
:1009280040EA0C005B084FEA3202B6EB020E75EBA8
:10093800030E22BFB61A754640EA5C005B084FEA10
:100948003202B6EB020E75EB030E22BFB61A7546DD
:1009580040EA9C005B084FEA3202B6EB020E75EBE8
:10096800030E22BFB61A754640EADC0055EA060EA9
:1009780018D04FEA051545EA16754FEA06164FEAEC
:10098800C30343EA52734FEAC2025FEA1C1CC0D198
:1009980011F4801F0BD141EA00014FF000004FF025
:1009A800004CB6E711F4801F04BF01430020B4F1E6
:1009B800FD0C88BFBCF5E06F3FF6AFAEB5EB030C9E
:1009C80004BFB6EB020C5FEA500C50F1000041EB9B
:1009D800045170BD0EF0004E4EEA113114EB5C0468
:1009E800C2BFD4EB0C0541EA045170BD41F480113B
:1009F8004FF0000E013C90E645EA060E8DE60CEA43
:100A0800135594EA0C0F08BF95EA0C0F3FF43BAF5F
:100A180094EA0C0F0AD150EA01347FF434AF95EA16
:100A28000C0F7FF425AF104619462CE795EA0C0FFA
:100A380006D152EA03353FF4FDAE1046194622E7C7
:100A480050EA410618BF52EA43067FF4C5AE50EAA1
:100A580041047FF40DAF52EA43057FF4EBAE12E791
:100A68004FF0FF3C06E000BF4FF0010C02E000BF72
:100A78004FF0010C4DF804CD4FEA410C7FEA6C5C55
:100A88004FEA430C18BF7FEA6C5C1BD001B050EAF8
:100A9800410C0CBF52EA430C91EA030F02BF90EAE3
:100AA800020F0020704710F1000F91EA030F58BFA2
:100AB800994208BF90422CBFD8176FEAE37040F004
:100AC800010070474FEA410C7FEA6C5C02D150EAA2
:100AD800013C07D14FEA430C7FEA6C5CD6D152EA5D
:100AE800033CD3D05DF8040B704700BF8446104622
:100AF80062468C461946634600E000BF01B5FFF721
:100B0800B7FF002848BF10F1000F01BD4DF808EDF0
:100B1800FFF7F4FF0CBF012000205DF808FB00BFC1
:100B28004DF808EDFFF7EAFF34BF012000205DF81B
:100B380008FB00BF4DF808EDFFF7E0FF94BF012068
:100B480000205DF808FB00BF4DF808EDFFF7CEFF69
:100B580094BF012000205DF808FB00BF4DF808EDA8
:100B6800FFF7C4FF34BF012000205DF808FB00BF79
:100B78004FEA410C7FEA6C5C02D150EA013C0AD191
:100B88004FEA430C7FEA6C5C02D152EA033C02D183
:100B98004FF0000070474FF0010070474FEA4102E4
:100BA80012F5001215D211D56FF47873B3EB6252B7
:100BB80012D94FEAC12343F0004343EA505311F0DE
:100BC800004F23FA02F018BF404270474FF0000070
:100BD800704750EA013005D111F0004008BF6FF0AE
:100BE800004070474FF00000704700BF4FEA4102D5
:100BF800B2F1E04324BFB3F5001CDCF1FE5C0DD973
:100C080001F0004C4FEAC0024CEA5070B2F1004FBC
:100C180040EB830008BF20F00100704711F0804FBF
:100C280021D113F13872BCBF01F00040704741F484
:100C380080114FEA5252C2F11802C2F1200C10FA88
:100C48000CF320FA02F018BF40F001004FEAC1236C
:100C58004FEAD32303FA0CFC40EA0C0023FA02F310
:100C68004FEA4303CCE77FEA625307D150EA0133E6
:100C78001EBF4FF0FE4040F44000704701F00040B6
:100C880040F0FE4040F40000704700BF80F0004094
:100C980002E000BF81F0004142001FBF5FEA41034C
:100CA80092EA030F7FEA226C7FEA236C6AD04FEA4C
:100CB8001262D2EB1363C1BFD21841404840414091
:100CC800B8BF5B42192B88BF704710F0004F40F443
:100CD800000020F07F4018BF404211F0004F41F45F
:100CE800000121F07F4118BF494292EA030F3FD02B
:100CF800A2F1010241FA03FC10EB0C00C3F120033E
:100D080001FA03F100F0004302D5494260EB4000CC
:100D1800B0F5000F13D3B0F1807F06D340084FEA37
:100D2800310102F10102FE2A51D2B1F1004F40EB2C
:100D3800C25008BF20F0010040EA03007047490094
:100D480040EB0000013A28BFB0F5000FEDD2B0FA31
:100D580080FCACF1080CB2EB0C0200FA0CF0AABF54
:100D680000EBC25052421843BCBFD04018437047F2
:100D780092F0000F81F4000106BF80F400000132F8
:100D8800013BB5E74FEA41037FEA226C18BF7FEACF
:100D9800236C21D092EA030F04D092F0000F08BF11
:100DA8000846704790EA010F1CBF0020704712F0F8
:100DB8007F4F04D1400028BF40F00040704712F137
:100DC80000723CBF00F50000704700F0004343F09C
:100DD800FE4040F4000070477FEA226216BF0846D2
:100DE8007FEA23630146420206BF5FEA412390EA95
:100DF800010F40F4800070474FF0000304E000BF8B
:100E080010F0004348BF40425FEA000C08BF70473B
:100E180043F0964301464FF000001CE050EA0102FF
:100E280008BF70474FF000030AE000BF50EA010214
:100E380008BF704711F0004302D5404261EB410101
:100E48005FEA010C02BF84460146002043F0B64326
:100E580008BFA3F18053A3F50003BCFA8CF2083A4B
:100E6800A3EBC25310DB01FA02FC634400FA02FC54
:100E7800C2F12002BCF1004F20FA02F243EB02005B
:100E880008BF20F00100704702F1200201FA02FCBD
:100E9800C2F1200250EA4C0021FA02F243EB0200B0
:100EA80008BF20EADC7070474FF0FF0C1CEAD052F4
:100EB8001EBF1CEAD15392EA0C0F93EA0C0F6FD0B5
:100EC8001A4480EA010C400218BF5FEA41211ED093
:100ED8004FF0006343EA501043EA5111A0FB01317F
:100EE8000CF00040B1F5000F3EBF490041EAD37154
:100EF8005B0040EA010062F17F02FD2A1DD8B3F1D0
:100F0800004F40EBC25008BF20F00100704790F03E
:100F1800000F0CF0004C08BF49024CEA502040EA90
:100F280051207F3AC2BFD2F1FF0340EAC250704756
:100F380040F400004FF00003013A5DDC12F1190F94
:100F4800DCBF00F000407047C2F10002410021FA06
:100F580002F1C2F1200200FA02FC5FEA310040F11E
:100F6800000053EA4C0308BF20EADC70704792F097
:100F7800000F00F0004C02BF400010F4000F013ACF
:100F8800F9D040EA0C0093F0000F01F0004C02BFCA
:100F9800490011F4000F013BF9D041EA0C018FE739
:100FA8000CEAD15392EA0C0F18BF93EA0C0F0AD03F
:100FB80030F0004C18BF31F0004CD8D180EA010065
:100FC80000F00040704790F0000F17BF90F0004FFE
:100FD800084691F0000F91F0004F14D092EA0C0FE0
:100FE80001D142020FD193EA0C0F03D14B0218BF73
:100FF800084608D180EA010000F0004040F0FE40B9
:1010080040F40000704740F0FE4040F44000704754
:101018004FF0FF0C1CEAD0521EBF1CEAD15392EAD3
:101028000C0F93EA0C0F69D0A2EB030280EA010CC3
:1010380049024FEA402037D04FF0805343EA11115C
:1010480043EA10130CF000408B4238BF5B0042F1BA
:101058007D024FF4000C8B4224BF5B1A40EA0C005F
:10106800B3EB510F24BFA3EB510340EA5C00B3EB91
:10107800910F24BFA3EB910340EA9C00B3EBD10F7F
:1010880024BFA3EBD10340EADC001B0118BF5FEAD1
:101098001C1CE0D1FD2A3FF650AF8B4240EBC250FA
:1010A80008BF20F0010070470CF0004C4CEA5020BB
:1010B8007F32C2BFD2F1FF0340EAC250704740F40A
:1010C80000004FF00003013A37E792F0000F00F0FC
:1010D800004C02BF400010F4000F013AF9D040EA7A
:1010E8000C0093F0000F01F0004C02BF490011F40E
:1010F800000F013BF9D041EA0C0195E70CEAD15306
:1011080092EA0C0F08D142027FF47DAF93EA0C0FEC
:101118007FF470AF084676E793EA0C0F04D14B02D0
:101128003FF44CAF08466EE730F0004C18BF31F082
:10113800004CCAD130F000427FF45CAF31F000437C
:101148007FF43CAF5FE700BF4FF0FF3C06E000BF15
:101158004FF0010C02E000BF4FF0010C4DF804CD38
:101168004FEA40024FEA41037FEA226C18BF7FEA48
:10117800236C11D001B052EA530C18BF90EA010F4A
:1011880058BFB2EB030088BFC81738BF6FEAE170D9
:1011980018BF40F0010070477FEA226C02D15FEA75
:1011A800402C05D17FEA236CE4D15FEA412CE1D0E1
:1011B8005DF8040B704700BF844608466146FFE7A8
:1011C8000FB5FFF7C9FF002848BF10F1000F0FBD8A
:1011D8004DF808EDFFF7F4FF0CBF012000205DF883
:1011E80008FB00BF4DF808EDFFF7EAFF34BF012008
:1011F80000205DF808FB00BF4DF808EDFFF7E0FFA1
:1012080094BF012000205DF808FB00BF4DF808EDF1
:10121800FFF7D2FF94BF012000205DF808FB00BF54
:101228004DF808EDFFF7C8FF34BF012000205DF836
:1012380008FB00BF4FEA4002B2F1FE4F0FD34FF058
:101248009E03B3EB12620DD94FEA002343F000432B
:1012580010F0004F23FA02F018BF404270474FF0D9
:101268000000704712F1610F01D1420205D110F060
:10127800004008BF6FF0004070474FF00000704713
:101288007BB972B90029BEBF00204FF0004106E0CB
:1012980008BF00281CBF6FF000414FF0FF3000F07E
:1012A800BFB9ADF1080C6DE904CE002909DB002BAC
:1012B8001ADB00F035F8DDF804E0DDE9022304B0BC
:1012C8007047404261EB4101002B1BDB00F028F81E
:1012D800DDF804E0DDE9022304B0404261EB41019E
:1012E800524263EB43037047524263EB430300F0FF
:1012F80017F8DDF804E0DDE9022304B0404261EBB1
:1013080041017047524263EB430300F009F8DDF8EE
:1013180004E0DDE9022304B0524263EB4303704763
:101328002DE9F047089D8E4604468846002B4AD191
:101338008A42174662D9B2FA82F64EB1C6F1200344
:1013480001FA06F820FA03F3B74043EA0808B44064
:101358004FEA174EB8FBFEF11FFA87FC0EFB118807
:1013680001FB0CF2230C43EA08439A4209D9FB1803
:1013780001F1FF3080F0EB809A4240F2E8800239B8
:101388003B449A1AB2FBFEF00EFB102200FB0CFC49
:10139800A3B243EA02439C4509D9FB1800F1FF3286
:1013A80080F0D7809C4540F2D4803B44023840EA24
:1013B80001400021A3EB0C031DB10022F340C5E955
:1013C8000032BDE8F0878B4205D90DB1C5E90001AF
:1013D80000210846F5E7B3FA83F1002946D17345A1
:1013E80002D3824200F20881841A6EEB03020120C4
:1013F8009046002DE5D0C5E90048E2E7002A00F054
:101408009180B2FA82F6002E40F0A5808A1A012156
:10141800030C4FEA174E80B2BCB2B2FBFEFC0EFBC7
:101428001C2243EA024304FB0CF29A4207D9FB1838
:101438000CF1FF3802D29A4200F2E380C4469B1AAC
:10144800B3FBFEF20EFB123302FB04F440EA034343
:101458009C4207D9FB1802F1FF3002D29C4200F2ED
:10146800CD8002461B1B42EA0C40A5E7C1F12006CD
:101478008B4022FA06F71F432EFA06FA4FEA17495D
:10148800BAFBF9F80EFA01FE20FA06F309FB18AACE
:101498001FFA87FC43EA0E0300FA01FE08FB0CF072
:1014A8001C0C44EA0A44A04202FA01F20AD93C1987
:1014B80008F1FF3A80F09E80A04240F29B80A8F19C
:1014C80002083C44241A98B2B4FBF9F309FB13440C
:1014D80003FB0CFC40EA0444A44509D93C1903F178
:1014E800FF3080F08580A44540F28280023B3C4476
:1014F80043EA0840A4EB0C04A0FB028C6445434675
:10150800E14664D361D05DB1BEEB030264EB09042C
:1015180004FA06F622FA01F31E43CC40C5E900643A
:1015280000214EE7B1FBF2FC010C41EA0E4180B20A
:1015380040EA01423B46B1FBF7F138463C46B84623
:10154800BE462026A2EB080241EA0C4165E70146A7
:1015580017E710462BE7C6F120012EFA01FCB74029
:101568000EFA06FE20FA01F141EA0E014FEA174E83
:10157800BCFBFEF8BCB20EFB18CC08FB04F90A0C45
:1015880042EA0C42B04091454FEA104380B23ED93E
:10159800BA1808F1FF3C01D291451FD8A2EB090205
:1015A800B2FBFEF909FB04F80EFB192A8AB242EADB
:1015B8000A42424529D2BA1809F1FF31C2D242453E
:1015C800C0D2A9F102013A44BCE7C6459BD2B8EBA8
:1015D80002036CEB070C0138E14694E7A7EB090915
:1015E8004A44B2FBFEF9A8F1020C09FB04F8DBE758
:1015F80003467DE7D04665E70846FAE63B44023AEB
:1016080030E7ACF1020C3B4419E749469AE7A2EBF4
:101618000902B2FBFEF9C44609FB04F8C4E700BF9F
:10162800704700BFD0E901329342BFBF0268591C1E
:101638004160D05CA8BF0020704710B552EA03048F
:101648000CD48C68944209DBA41A9C4206DB096816
:101658000A4402600022C0E9012310BD002213469B
:10166800F7E7006800BA704703460078312809D1C7
:101678005A78002A2DD19A785ABBD878B0FA80F0D7
:101688004009704774280BD15A78792A17D19A786B
:10169800702A1ED1D878312814BF00200120704745
:1016A8004F2814D15A78542A13D19A78542A10D131
:1016B800D8784F28F0E75A78012ADCD07047722A88
:1016C80007D19A78752A04D1D8786528E4E70028E4
:1016D800F1D00020704730B40B1DC45CC518084415
:1016E80000216B7803EB04239BB2994202DB0020B4
:1016F80030BC7047057B1478A5420FD1457B5478E0
:10170800A5420BD1857B9478A54207D1C57BD478B7
:10171800A54203D1143030BCFFF7A3BF013110300C
:10172800E3E72DE9F0470E25DDE90AA9DDE90C8E8E
:101738004D4306464419BDF920C0BDF92470481C24
:10174800EBB17AB103230146237308EB0A035B105C
:1017580023800EEB09035B106380A4F80480A4F8CF
:1017680006E00E35032273191A73481C26F805C0C3
:101778005F80A3F804A0A3F80690BDE8F0874AB1FB
:101788000323A4F800C023736780A4F80480A4F896
:1017980006E0F2E70223A4F800C023736780A28062
:1017A800E280EAE7C3698B4201DB436803B9C161A0
:1017B800436A934201DB436803B9426283698B42FF
:1017C80001DC436803B98161036A934201DC436821
:1017D80003B902620123436070472DE9F8430D46BF
:1017E800DDE90898DDE90A7611461A4603680446D9
:1017F80083B1FFF7D7FF042D07D142464946FFF7CB
:10180800D1FF32463946FFF7CDFFE36A0133E36281
:10181800BDE8F883C36A0E204343D4F828C00CEB14
:10182800030005732CF803104280A0F80490A0F878
:10183800068007814681E8E77FB586680446C56863
:1018480001693046FFF7C4FC20B129466069FFF7FB
:10185800BFFC88B92846FFF7EDFC05463046FFF780
:10186800E9FC00210246CDE90211CDE900112B4621
:1018780002212046FFF7B1FF04B070BD7FB50446D2
:101888000D461646FFF7D8FF21692846FFF704FAE8
:10189800616905462061A0603046FFF7FDF9606187
:1018A800E060FFF7C7FC06462846FFF7C3FC0021A7
:1018B8000246CDE90211CDE9001133460121204647
:1018C800FFF78BFF04B070BD7FB504460846216959
:1018D8001646FFF7E1F96169054620613046FFF7D2
:1018E800DBF96061FFF7A6FC06462846FFF7A2FC75
:1018F80000210246CDE90211CDE90011334602214B
:101908002046FFF76AFF04B070BD2DE9FF47044683
:101918000846216916461F46FFF7BEF96169054664
:101928003046FFF7B9F9394606462846FFF7B4F9B5
:101938000C9907463046FFF7AFF90D9980463846AF
:10194800FFF7AAF90E99814620614046FFF7A4F9EE
:101958006061FFF76FFC82464846FFF76BFC8146E3
:101968004046FFF767FC03903846FFF763FC029098
:101978003046FFF75FFC01902846FFF75BFC5346B3
:1019880000904A4604212046FFF727FF04B0BDE82F
:10199800F087F0B50278437803EB02239BB2012B62
:1019A80004D0022B1BD04FF0FF30F0BD8278C378F3
:1019B80003EB02239BB28B421BDC0479427902EBD6
:1019C800042292B21A448A4213DDCB1A5B00063312
:1019D800C218C35C507800EB032080B2E5E700270B
:1019E80006268278C37803EB02239BB2013B9F4211
:1019F80001DD0020D9E7FC18641006FB04F5043566
:101A0800421910F805C0557805EB0C25ADB2A9426E
:101A180001DA631EEBE79778D57805EB0725ADB2B9
:101A2800A94201DD671CE2E713795079D3E72DE974
:101A3800F04F04460D464FF0140989B00C2D02DC16
:101A480009B0BDE8F08F6E1009FB054209FB064698
:101A580052F810BC7368594618460193FFF7C2FB49
:101A6800D4F804A0019BB0F100081946504618BFED
:101A78004FF00108FFF7B6FB003818BF01204045BA
:101A880005F1FF372AD059465046FFF7ABFB00381F
:101A980018BF0120404514BFBC464FF0000C09FB9D
:101AA8000C4CE0460DF10C0EB8E80F00AEE80F0044
:101AB800D8F800A0CEF800A0B646BEE80F00ACE803
:101AC8000F00B446DEF80030C8F800300DF10C08FD
:101AD800B8E80F00ACE80F00CEF800A0A6460DF15C
:101AE8000C0CBEE80F00ACE80F00DEF80080A24640
:101AF800CCF80080B446BCE80F00AAE80F00DCF878
:101B080000304FF0020ACEF800300DF10C0EBEE89E
:101B18000F000FC62346CCF80080D4F804B09869AB
:101B2800594603F11408FFF75DFB80BB09FB074624
:101B3800A6F11403584671680193FFF753FB18B1D7
:101B4800019B013F1E46F3E70AF1FF33BB4222DA4D
:101B5800C6460DF10C0CBEE80F00ACE80F00DEF82D
:101B68000030C346CCF80030B4460193BCE80F00FF
:101B7800ABE80F00DCF80030013FCEF800300DF183
:101B88000C0EBEE80F000FC6019BCCF80030434690
:101B98000AF1010AC1E7ED1ABD4205DD39462046C2
:101BA800FFF745FF444649E729464046FFF73FFF10
:101BB8003D46A046F6E7000038B5036C33B140F265
:101BC80047611B4B1B4A1C4809F070FCC3688B42D9
:101BD8002BDD436B012B28DC826944680069C3B99B
:101BE80000EB41016318605C5B780231651803EB18
:101BF8000023605C69789BB201EB002189B202EB9B
:101C0800430302EB4102934208BF4FF0FF331846EB
:101C180038BD00EB81016018FFF723FD043113186C
:101C28006018FFF71EFD0244EDE74FF0FF33EEE7C3
:101C380078E30008EBE9000888E3000870B50C4673
:101C48000646002120461546FFF7E0FA30B940F66F
:101C5800FB310D4B0D4A0E4809F028FC002128469F
:101C6800FFF7D4FA20B940F6FC310A4B074AF2E7ED
:101C780029462046FFF710F84FF07C51FFF714F97A
:101C88003146FFF711F970BD9FE3000854E90008D9
:101C980088E30008AEE300082DE9F04F93469A4622
:101CA8008FB009900C9159461898FEF7F3FF5146EA
:101CB8000A901998FEF7EEFF18990D901A98FEF7FA
:101CC800E9FF199981461B98FEF7E4FF1A998046A7
:101CD8001C98FEF7DFFF1B9907461D98FEF7DAFFF1
:101CE800594606461C98FEF7D5FF514605461D98ED
:101CF800FEF7D0FF0A9904460846FFF7D5F80D9974
:101D08000A900846FFF7D0F801460A98FEF7C4FF84
:101D1800FEF73CFC0CF018F9CDE90A0149464846A3
:101D2800FFF7C2F8414681464046FFF7BDF8014635
:101D38004846FEF7B1FFFEF729FC0CF005F980468E
:101D4800894638463946FFF7AFF8314607463046E8
:101D5800FFF7AAF801463846FEF79EFFFEF716FC85
:101D68000CF0F2F806460F46DDE90A0142464B46FA
:101D7800FEF7AEFA32463B46FEF7AAFAFEF736FF02
:101D8800294606462846FFF78FF82146054620468D
:101D9800FFF78AF801462846FEF77EFFFEF7F6FBB6
:101DA8000CF0D2F8FEF722FF314604463046FFF722
:101DB8007BF8214605462046FFF776F80146284677
:101DC800FEF768FF1F9B112B00F098801E99FFF704
:101DD80027FA002800F0838059461898FEF75CFF20
:101DE8004FF07C51FFF760F8514606461998FEF708
:101DF80053FF4FF07C51FFF757F81A990746189888
:101E0800FEF74AFF4FF07C51FFF74EF81B99054645
:101E18001998FEF741FF4FF07C51FFF745F81C99E0
:101E280004461A98FEF738FF4FF07C51FFF73CF84C
:101E38001D991A901B98FEF72FFF4FF07C51FFF762
:101E480033F829461B903046FEF726FF4FF07C51A9
:101E5800FFF72AF8214680463846FEF71DFF4FF067
:101E68007C51FFF721F81A9981462846FEF714FF9E
:101E78004FF07C51FFF718F81B9918902046FEF791
:101E88000BFF4FF07C51FFF70FF819901899404657
:101E9800FEF702FF4FF07C51FFF706F81999044648
:101EA8004846FEF7F9FE4FF07C51FEF7FDFF054668
:101EB8001F9B5A4601331F9307931E9B0590069359
:101EC8000C99534609980494CDF80C90CDF80880E5
:101ED80001970096FFF7E0FEAA46A346E3E60C9BAF
:101EE800099A1B683AB109991C9802EBC30241F898
:101EF80033001D9951600C9A013313600FB0BDE88F
:101F0800F08F000008B583688B4201DB002906DAF0
:101F180040F27D41034B044A044809F0C7FA416086
:101F280008BD00BFC0E3000833EA000888E30008E2
:101F380043681944FFF7E6BFF8B54B1E032B074665
:101F48000E4606D940F28A41084B094A094809F069
:101F5800ADFA0025284604023846FFF763FB013531
:101F6800AE4240EA0400F6D1F8BD00BFD8E300084D
:101F78000FEA000888E300082DE9FF4101AD85E874
:101F88000E000746002128460A9EFFF7BBFF0221E4
:101F98002846FFF7D1FF80462846FFF743FB002E6F
:101FA800044601DBB04506DC40F2F241134B144A0B
:101FB800144809F07BFA431E032B04D940F2F3417D
:101FC800114B0F4AF4E706FB00F12846FFF7B0FF74
:101FD80021462846FFF7B0FF214606462846FFF768
:101FE800ABFF08FB04440234831B29463846A21978
:101FF800FFF723FB04B0BDE8F08100BFE9E3000868
:1020080043EA000888E30008FDE300082DE9F041F1
:102018000C46D1F80480074602212046FFF78CFFC2
:102028000646D0B12046FFF7FDFA431E032B0546AE
:1020380006D940F2AD410E4B0E4A0F4809F036FA68
:1020480000FB06F12046FFF773FF29462046FFF7FD
:1020580073FF411E2046FFF76BFF63683846424610
:102068002146A3EB0803FFF7E8FABDE8F08100BFBB
:10207800FDE300081EEA000888E3000870B505467D
:10208800FFF7D0FAA0F12003D62B044601D88B38ED
:1020980070BDA0F1F706032E06D82846FFF7C2FA4E
:1020A80000EB06206C30F3E7A0F1FB03032B08D804
:1020B8002846FFF7B7FAC4F1FB04C0EB04206C38DC
:1020C800E6E71C2805D102212846BDE87040FFF745
:1020D80033BF1D2801D10421F6E740F2BC41024B71
:1020E800024A034809F0E2F9BEE3000800EA0008E2
:1020F80088E300082DE9F74FDDF83080DDF83890E7
:102108008A4600904946404693461C460D9DFFF777
:102118005FF8002840F0258149464046FFF762F8FD
:1021280030B940F6D731904B904A914809F0BEF942
:10213800DBF81470DBF8186038463146FFF75CF8B6
:1021480020B940F6D8318B4B884AEEE731464046F5
:10215800FFF766F8002840F0048139464846FFF743
:1021680041F8002840F0FD8039464046FFF73AF82C
:10217800D8B121462846FEF78DFD414601903846E4
:10218800FEF788FD01460198FEF78EFE4146019054
:102198004846FEF77FFD01460198FEF739FF0146E4
:1021A8002046FEF779FDB846044631464846FFF713
:1021B80037F8D8B121462846FEF76CFD4946074650
:1021C8003046FEF767FD01463846FEF76DFE41468C
:1021D80007464846FEF75EFD01463846FEF718FFFB
:1021E80001462846FEF758FDB14605465046FEF71B
:1021F80007FE06460AF10100FEF702FE31460746D1
:102208002046FEF7E5FF58B129463846FEF7FEFF9F
:10221800002840F08F8040F6E531574B534A84E759
:1022280021463846FEF7D4FF50B129463046FEF71E
:10223800E3FF002878D140F6E731504B4B4A74E76A
:1022480031462046FEF7D8FF50B129463046FEF702
:10225800DDFF002874D140F6E931494B434A64E771
:1022680021463846FEF7C8FF294648B13846FEF7EA
:10227800C3FF002875D140F6EB31424B3B4A54E787
:102288003046FEF7B9FF20B129463846FEF7BEFFB3
:1022980020B940F6ED313C4B344A46E721463846F2
:1022A800FEF7AAFF28B129463846FEF7A5FF002801
:1022B80057D131462046FEF7A9FF70B1214638466E
:1022C800FEF7A4FF48B129463046FEF795FF20B136
:1022D80029463846FEF79AFF20B940F6F4312B4BD1
:1022E800224A22E731462046FEF7D4FC314604460E
:1022F8002846FEF7CFFC01462046FEF7CDFC4FF0FE
:102308007C51FEF7D1FD01464FF07E50FEF7C2FC2E
:10231800414604464846FEF7BDFCDBF81010FEF7C0
:10232800C3FD0146204611E031462046FEF764FF12
:102338000028B8D029463046FEF768FF0028ADD0FF
:1023480041464846FEF7A6FCDBF81010FEF7ACFD48
:10235800009B014653F82A00FEF79EFC009B43F8B9
:102368002A0003B0BDE8F08F1AE4000839E9000834
:1023780088E3000822E400086EE4000831E400085D
:1023880039E4000841E4000863E400084BE400086D
:102398002DE9F04FADF51B7D179300230568144612
:1023A800402D0B900891189330DDE800043009F0B7
:1023B8009BF883460BEB85030E931423089A03FBC3
:1023C80004240B9B5868A49B1844FEF719FD4FF092
:1023D8007E51FEF761FC0023606010930D93099312
:1023E8000C930C9AA49B98180B9B5B689A4210DB81
:1023F800099B002B40F0BB8319AB9B4502D0584684
:1024080009F07AF80DF51B7DBDE8F08F0DF1640B2E
:10241800D0E7FEF7F5FC4FF07E518246FEF73CFC14
:102428000B9B00211B6804909C00224658460F9382
:1024380009F0B2FA00210E98221D09F0ADFA18AD84
:102448002C680CBBDFF86882089B04985C682146FE
:10245800FEF7DCFE002832D1DDF86090B9F1000FFC
:1024680040F0C080002500244FF07C57914E0B9B14
:102478001B689C42C0F2508318AC2468002C40F0C2
:1024880070830C9B0133ABE75046A1692668FEF7C1
:10249800BDFE90B1002120692E60FEF799FE30B193
:1024A80040F60351844B854A854808F0FFFF002316
:1024B80023610D9B0D942360C2E72546C0E7089B66
:1024C8002146DD682846FEF783FE002877D10D9B5C
:1024D800D3B199461B680D93089B1F6898683946C5
:1024E800FEF7D8FB214606462846FEF7D3FB0146F1
:1024F8003046FEF78DFD0646B9F1000F1FD140F6B4
:102508002D31704B704ACFE7109B63B94DF6C4204C
:1025180008F0EAFF81460028DED0099B0990036095
:102528004FF4FA6310934FF01C09109B013B109372
:10253800109A099B09FB023909F10409CCE700212B
:10254800C9F80800FEF744FE00283CD131464FF098
:102558007E50FEF75DFD2146C9F80C005046FEF797
:1025680099FB3146FEF7A0FC3946FEF795FB064677
:102578001798FEF745FC01463046FEF78BFB089B93
:10258800C9F804001B6903B34FF07E53C9F8103033
:102598000023C9F800300C9BC9F81440C9F818503A
:1025A800ABB9A49B9BB129465046FEF739FE70B1E2
:1025B800C9F818A0189BCDF86090C9F80030089B9E
:1025C8001433089340E70020C5E74346DEE7294671
:1025D8005046FEF711FE0028ECD140F616513B4B51
:1025E800364A61E70E9B04331393D9F818305046E6
:1025F80019460593FEF700FE20B940F61241344B08
:10260800344A51E7D9F8083000211846D9F804505F
:102618000693FEF7DDFD002835D00F98FEF7F0FB96
:1026280001462846FEF7DEFDF8B100212846FEF7F0
:10263800EDFD0146F8B12846FEF7FCFD049B014676
:1026480004464A46029358462B460195CDF800A009
:10265800FFF750FD049B4A4602932B460195CDF89F
:1026680000A0611C0E98FFF745FDD9F80090B9F15C
:10267800000FBAD1F6E6049B4A46029301952B4611
:10268800CDF800A0EEE706992846FEF705FBD9F835
:102698000C3006460A93D9F8143004981946079363
:1026A800FEF7B4FDD0B940F625410B4B094AFBE6CD
:1026B800000080BF00007F4378E400089FE900081D
:1026C80088E3000885E400088DE9000896E400081E
:1026D800BFE4000870E90008AAE40008504607991A
:1026E800FEF780FD002876D051460798FEF7D2FA0B
:1026F8000699FEF7D9FB2946FEF7CEFA0446059956
:102708000498FEF78DFD002869D051460598FEF71C
:10271800C1FA0699FEF7C8FB2946FEF7BDFA8046BE
:1027280000212046FEF772FD28B100214046FEF741
:102738006DFD002857D100240F9BA34295DD20464C
:10274800FEF75EFB631C804618460A93FEF758FBAB
:10275800294607464046FEF79DFA0699FEF758FCBB
:102768005146FEF799FA294605903846FEF792FA3F
:102778000699FEF74DFC5146FEF78EFA4146079042
:102788002846FEF72FFD002800F0828139463046A2
:10279800FEF746FD002800F0F181059B4A460293AA
:1027A80021462B465846CDF80480CDF800A0FFF707
:1027B800A1FC079B01970293059B009343464A4659
:1027C80021465846FFF796FC049B01960293079B07
:1027D80000933B46FBE12C46CDF81CA08FE7049BF9
:1027E800B04605939CE70F98FEF70AFB074601469B
:1027F8002046FEF7F7FC00289DD039464046FEF7F4
:10280800F1FC002897D02046FEF714FD0746404605
:10281800FEF710FD874238D107990598FEF73AFA76
:10282800D9F81010FEF740FB002F054602DB0F9B7E
:10283800BB4204DC40F64141A14BA24A34E638468B
:10284800FEF7DEFA4FF07E51FEF726FA41460646BD
:10285800FEF720FA214680463046FEF71BFA42462C
:1028680001462846FFF7EAF901465BF82700FEF71C
:1028780013FA139B4BF8270053F827002946FEF755
:102888000BFA139B43F82700EFE641462046FEF774
:10289800C7FCF0B151460798FEF7FCF901460498C9
:1028A800FEF7F8F9514605460598FEF7F3F9014693
:1028B8000498FEF7EFF9069B059503F1004306938C
:1028C8000A9B354603F100430A932346444698463B
:1028D800079000210A98FEF799FC20B940F6534169
:1028E800794B784AE0E500210698FEF78FFC20B97D
:1028F80040F65441754B734AD6E52046FEF79AFCDC
:1029080014904046FEF796FC149B06465F1C38461A
:10291800FEF776FA29461690FEF7BCF90A99FEF7F3
:10292800C3FA5146FEF7B8F906903046FEF768FA42
:1029380029461590FEF7AEF90A99FEF7B5FA514601
:10294800FEF7AAF9069911900498FEF74BFC08B116
:10295800049B0693D9F81030079906981293FEF74E
:1029680099F91299FEF7A0FA054621461698FEF73E
:1029780091F92946FEF798FA4FF07C51FEF794FA40
:10298800149B01465BF82300FEF786F9149B119906
:102998004BF823000498FEF725FC70B106990498BB
:1029A800FEF778F90446F01BFEF72AFA014620469E
:1029B800FEF72EFB049B0A9011930A991298FEF7D2
:1029C80073FA0446BE420ADC414925F00040FEF78E
:1029D80013FCD0B940F694413E4B3A4A64E54FF0B7
:1029E8007C512046FEF760FA2946FEF755F9014664
:1029F8005BF82700FEF750F921464BF827002846D8
:102A0800FEF74AF901370546DCE733491198FEF726
:102A180041F90599FEF7E6FB20B940F695412F4BA1
:102A2800284A41E54FF07E511598FEF735F94146A1
:102A38000446FEF72FF9159907462046FEF72AF9AE
:102A4800044611990598FEF725F93A462146FFF7FD
:102A5800F5F801461298FEF727FA2946FEF71CF901
:102A680001465BF82600FEF717F907994BF8260090
:102A78000598FEF70FF91299FEF716FA139B01460F
:102A880053F82600FEF708F9139B43F82600ECE5F7
:102A980041463046FEF7A6FB002840F09F803946A5
:102AA8002846FEF79FFB394640B33046FEF7B8FB91
:102AB80058B3079B01970293CDF800A02B467EE6FA
:102AC800CEE4000870E90008E0E40008E8E4000843
:102AD800AE47813FF0E400080AD7233C04E500082C
:102AE80041463046FEF79CFB0028D8D0059BCDF820
:102AF80004800293CDF800A02B465DE03046FEF737
:102B080071FB10B139462846D0E7049B0196029321
:102B1800CDF800A02B465AE00E9B284653F8241007
:102B2800FEF7BAF85BF824100546FEF7B5F831460B
:102B380020F00040FEF7B8F90B9B0C9A9B683946C9
:102B480003FB02F80B9BDB6803EB0409FEF7A4F810
:102B5800FEF770FBFF28A8BFFF20013409F8080022
:102B680085E46068A168FEF797F8606085E4099BD2
:102B78001C68184608F0C0FC099439E44146304600
:102B8800FEF730FB0028ABD039462846FEF748FB55
:102B9800002884D0079B4A46029321462B46584674
:102BA8000197CDF800A0FFF7A5FA059BCDF80480A2
:102BB8000293079B00933B464A4621465846FFF737
:102BC80099FA049B01960293059B0093434621467C
:102BD8004A465846FFF78EFA0A9CADE5394628461C
:102BE800FEF71EFB0028D5D1414628467AE700BFEC
:102BF8002DE9FF4788460021044616461D46FFF783
:102C080081F9D4E901794F4515DB00231A462AE0FA
:102C18001E2B39D101212046FFF78AF963689945AF
:102C280009DD2046FEF7FEFC00F00F030F2B02D053
:102C380000110F28F2D1D4F804A0D14504DD23688F
:102C480013F80A301B2BE3D82046FEF7EBFC0C28C0
:102C580004D12046FEF7E6FC40F480708045D0D1D0
:102C68003A46AAEB0703214601A8FEF7E6FCDDE990
:102C78000234A34205DA01A8FFF700FA022E286001
:102C880006D004B0BDE8F0872046FFF7F7F9D2E791
:102C9800029BA342F5DA01A8FFF7F0F96860F0E7B4
:102CA80070B58AB001AD85E80E0000230446CDE971
:102CB800043306930222122105AB0EA8FFF798FFF2
:102CC800069E0EB1059B33B90023C4E90033A36007
:102CD80020460AB070BD3246294607A8FEF7ADFC6B
:102CE8001321012204ABFFF783FF04990029EBD0DD
:102CF80028463144FFF706F929462046FFF786F9AA
:102D0800E6E72DE9F04F14460246F3B0099112ABFD
:102D18005C32069007CA83E80700099B15AD00934B
:102D2800069B284644330ECBFFF726F900231E46A0
:102D380008930593079301230A93D5E901239A423F
:102D480080F258832846FEF76DFC431E07461E2B6B
:102D580000F24A83DFE813F03300480333004900E8
:102D68005D007F006E00F8004803AD016202790241
:102D78004803720248034803480333001F001F003A
:102D88003B005300330010013D01790179014803EC
:102D9800DF01C60090000A9B2BB1079B06EBD67695
:102DA80003EB66030793079B2846D91D48BF03F129
:102DB8000E01C910FFF7BCF800260A96BDE7079B6D
:102DC80006EBD67603EB660307930026B5E7012EDC
:102DD80040F3108372AB03EB860353F8C42C53F80B
:102DE800C81C2046FEF74AFDE6E7002E40F30283A2
:102DF80072AB03EB8606002156F8C42CF1E7002ECF
:102E080040F3F88272AB03EB8606002256F8C41C26
:102E1800E7E7012E40F3EE8201270DF58478D8F814
:102E28000420204658F8081B0237FEF74DFDB7422C
:102E3800F5DBCAE7002E40F3DD82002772AB03EB17
:102E480087030021204653F8C02C0137FEF73CFDCC
:102E5800BE42BADD03E0002E40F3CC82002772ABFD
:102E680003EB87030022204653F8C01C0137FEF706
:102E78002BFDBE42A9DDE1E7032E40F3BB824FF0F4
:102E8800000872AA02EB880252F8B80CA6EB0802F6
:102E9800052A14BF002272AA08F1040772AB0DF5C7
:102EA800E47C08BF02EB870203EB88030CEB880C79
:102EB80008BF52F8C02C53F8C01C5CF8B4CC72ABF5
:102EC80003EB880353F8BC3C08F107080192009013
:102ED80000222046CDF808C0FEF717FDB045BFF622
:102EE80074AF03E0032E40F38582002772A901EB3B
:102EF800870151F8B80C72A901EB870151F8B4CCDD
:102F0800F11B052914BF002172A907F1040872AB4F
:102F180008BF01EB880103EB870308BF51F8C01C09
:102F280053F8C02C72AB03EB870353F8BC3C07374C
:102F38000291009000212046CDF804C0FEF7E5FC80
:102F4800B742BFF642AF9CE7052E40F353824FF0DD
:102F5800050842AF7B69204602933B6908F10608E1
:102F68000193FB680093BB687A6857F8181BFEF753
:102F7800CCFCB045EEDB28E7072E40F33B824FF050
:102F88000008A6F1020942AF7B69204602933B691B
:102F98000193FB680093BB687A6857F8181BFEF723
:102FA800B4FC434603F10B02914508F10608EBDC3B
:102FB8000733B34280F21E8272AA02EB880802EB42
:102FC8008303204653F8C02C58F8C01CFEF77CFC3D
:102FD800FBE6072E40F30E820127A6F106090DF540
:102FE8008478D8F80420204658F8081B0237FEF7E2
:102FF8006BFC4F45F5DBA6F10803590823F00103E4
:10300800DA1DB24203F1030001F1010180F2F281FD
:1030180072AF07EB820252F8C02C72AE029206EB36
:10302800830656F8A82C07EB8000019256F8AC3CB2
:1030380007EBC101009356F8B03C50F8C02C51F88A
:10304800C01C2046FEF761FCBFE6032E40F3D28188
:1030580016F001032BD0429942AA4FF0000A03F15F
:10306800030902EB830818E01B2FD8F80000D8F8F2
:103078000430D8F80820D8F80CC011D100920A46BC
:103088000146CDF808A0CDF804C02046FEF73DFC67
:10309800514609F1040908F110084E45E4DC94E6AC
:1030A8000092CDF808C00246CDF804A0EDE7002153
:1030B800D2E7089B6BBB069BDB6F53B3069B0DF1F6
:1030C8007808743393E8070088E8070040460899B1
:1030D800FEF718FF4046FEF7A5FA002873D14046D0
:1030E8000999FEF725FF4046FEF79CFA069B0090DB
:1030F8000DF16C0868330ECB4046FEF73DFF98E8AB
:1031080007008DE80700069B12A838330ECBFFF79F
:10311800C7FD01230893002E40F36C81013E72AB7A
:1031280003EB860353F8C00CFEF784F8059B824630
:10313800092B00F35F8103F101080C23059924AAE8
:1031480003FB01230DF154090A2F99E8070083E8CE
:10315800070016BF069A12AA503218AB07CA83E8AE
:1031680007001EAF18AB93E8070087E807000021A7
:103178003846FEF7C7FE02213846FEF7DDFE48F264
:103188006B43984244DCB0F59B6F40F26B43B8BF89
:103198006B231AEB03033ED483423CDA009397E88F
:1031A8000E0021A8FEF7E8FE219A239BC9F800200B
:1031B800C9F80830002B00F01D810023CDF81480D9
:1031C800C9F80430B9E503280CD102214046FEF7BE
:1031D800B3FE022181464046FEF7AEFE089B8346B9
:1031E800994502DC4FF0FF3080E74046FEF71AFAB7
:1031F800022182464046FEF79FFE099B5B4503DBA2
:10320800834201DA504671E7089B01330893E5E7EA
:103218004FF40043BDE700231A46C7E7059B002B80
:1032280040F3E880013B05930C23059924AA03FB8E
:10323800012393E8070085E807007EE52046FEF7AE
:10324800FBFA012073B0BDE8F08F2846FEF7EAF9D3
:103258002238032800F2CE80DFE800F0022346710E
:10326800062E40F3C7804FF0000A449E459B469FB8
:10327800DDF81C81DDF820915246429901930096B1
:10328800439B2046CDF808A006F10046FEF73DFB1B
:10329800434652463946CDF808A0CDF8049000962A
:1032A800CFE60C2E40F3A680479B489E0293469B90
:1032B800499F0193459BDDF82881DDF82C91DDF8C5
:1032C80030A1DDF834B1439A429900932046449BDB
:1032D800FEF71BFB43463A463146CDF808B0CDF819
:1032E80004A0CDF80090ACE6082E40F383800026B9
:1032F800DDF81481469B439A204642990193029631
:10330800449BCDF80080499FDDF81C91DDF820A191
:10331800DDF828B10B92FEF7F8FA0B9A41461046F1
:10332800FDF7BAFC3946FDF7B7FC00F100405346FB
:10333800324649460290CDF804B0009781E60A2E3D
:1033480058DD459A429B0D92489A0B93439B0E92E7
:10335800499A0C93449B0F92DDF818814A9A1946B2
:103368000B9811931092FDF797FC4146FDF794FCDA
:103378000E99FDF791FC1099FDF78EFCDDF81C9174
:1033880082460D990C98FDF787FCDDF82CB149466B
:10339800FDF782FC0F99FDF77FFC5946FDF77CFC91
:1033A80006462AF0004026F00041FDF739FF4C9F01
:1033B800119BA0B106F100460D9A0B990092204688
:1033C8000C9ACDF80890CDF80480FEF79EFA109B71
:1033D8000F9A0E9902960197CDF800B031E60AF1DE
:1033E800004A3E465746E7E7FF2805D01C2816D076
:1033F8001F2814DC002025E704212846FEF79CFD41
:10340800FDF7FEFC4FF05E51FDF74EFD2F2EF1DC6F
:1034180072AB03EB860343F8C00C01368DE44FF022
:10342800FF312846FEF784FD2846FEF727FE00B246
:10343800FDF7E6FCEAE700002DE9F04F00230D4612
:10344800904699B00446C0E90E330364C0E90112FE
:103458004146A14A2846FEF73EF941469F4A824620
:103468002846FEF738F941469D4A20610646284617
:10347800FEF731F941469B4A606181462846FEF7CE
:103488002AF94146984AA06105902846FEF723F993
:103498004146964AE06183462846FEF71CF94146B4
:1034A800934A206207462846FEF715F941466062AE
:1034B800904A2846FEF70FF9059BA062BAF1000F63
:1034C80003D1002019B0BDE8F08FB9F1000FF8D092
:1034D800BBF1000FF5D0002FF3D0002B35D0002E14
:1034E800EFD041462846844AFEF7F5F8002800F058
:1034F800D68004302B182A5C5B7803EB02239BB23E
:10350800E3604FF0FF33E3620AF10203EA185278EE
:10351800EB5C02EB0322002392B2236305EB0A0360
:1035280003EBC202934240F0BD80236B002BC8D04E
:1035380009F1320905EB090315F809205B78012028
:1035480003EB02239BB26363BCE70226414628468D
:103558006A4ACDE90B63CDE90D330593FEF7BBF855
:103568000028AED04FF00052059B28440FAF2264CC
:10357800A06304F1380207CAC4E91A3387E80700D0
:10358800C4E91C33C4E91E3331463846FEF7D0FC83
:103598003846FEF747F806AE01463846FEF7B2FC55
:1035A80039463046FEF732FD394615A8FEF72EFD9E
:1035B800059B0DF1480B009315A890E80E0058469E
:1035C800FEF7DAFC39463046FEF720FD394630462C
:1035D800FEF71CFD96E8070004F1500383E8070096
:1035E8000122112158460CABFFF702FB01224FF4D0
:1035F800837158460BABFFF7FBFA01224FF4927127
:1036080058460DABFFF7F4FA012240F2251158464F
:103618000EABFFF7EDFA9BE807008DE80700304690
:1036280097E80E00FFF73CFB96E8070004F15C03FF
:1036380083E807000B9B022B7FF443AF0C9B059399
:10364800002B3FF43EAF0D99D1B1DDF838B0BBF196
:10365800000F3FF436AF3846FEF754FC3946304683
:10366800FEF7D4FC96E8070004F1680383E8070036
:103678005A463946CBF1005304F17400FDF7DDFFDB
:1036880038460599FEF73EFC39463046FEF7BEFC43
:1036980096E8070004F1440383E8070021E74FF6A2
:1036A800FF732DE71879597903F1080601EB00211A
:1036B80089B251B103290DD19979DB7903EB012343
:1036C8009BB2012B01D00A2B04D13046FDF7C9FF6C
:1036D80050442063334625E718E500081DE5000837
:1036E80022E5000827E500082CE5000831E5000878
:1036F80036E500083BE5000845E5000840E5000818
:1037080010B50446FDF7B0FF20B1081E18BF012010
:10371800404210BD2378742B1CD16378742B19D1C7
:10372800A378632B16D1E378662B13D1201DFDF700
:1037380098FFB0F5803F02D0B0F5003F0AD1A368EA
:103748001BBA994206DA04EB81000C30BDE8104040
:10375800FDF787BF4FF0FF30DBE72DE9F04F8046DC
:103768008B4614461D4689B0129F179B112B00F0FB
:103778008D8039463846FDF78FFA2146FDF78CFAD9
:103788001499FDF789FA4FF07A51FDF78DFB1399DB
:1037980006460846FDF780FA2946FDF77DFA159991
:1037A800FDF77AFA4FF07A51FDF77EFB14998146BE
:1037B8002046FDF771FA4FF07C51FDF775FB314655
:1037C800FDF768FA159982462846FDF765FA4FF025
:1037D8007C51FDF769FB4946FDF75CFA51460790B5
:1037E8005046FDF761FB079982460846FDF75CFBEA
:1037F80001465046FDF750FA1699FDF711FD0028CD
:1038080035D0179B2946013317930593169B1398B8
:103818000493CDF80C900296FDF73EFA4FF07C51D8
:10382800FDF742FB214601903846FDF735FA4FF087
:103838007C51FDF739FB2B462246594600904046FD
:10384800FFF78BFF38461499FDF726FA4FF07C51A5
:10385800FDF72AFB159907461398FDF71DFA4FF057
:103868007C51FDF721FB4D46344613907DE7DBF88C
:103878000030B8F1000F06D0149908EBC30248F8DD
:103888003310159951600133CBF8003009B0BDE809
:10389800F08F00002DE9F0474368026B98189C5C94
:1038A800477807EB0427BFB20D2F00F20281DFE84B
:1038B80017F00E0000013B000001420000011D004E
:1038C80000010001000100010001CD00CD0002321D
:1038D8009C189A5C637803EB02239BB2063B8B42ED
:1038E80040F3C08008448079BDE8F087901D1D181A
:1038F8001C5C687800EB042080B28142C0F0B28082
:1039080002F108041E191D5D747804EB0524A4B2A5
:103918000444A14280F0A680081A0A3202EB400251
:10392800991848789B5C77E040F2EA51634B644A07
:10393800644807F0BBFDB1F5803F80F2938002F147
:103948000C001C186478185C02F10E0704EB0024C4
:10395800C4F34E0407EB440418191D5D407800EBCE
:10396800052080B28842C8BF3C4602F1080503EB37
:10397800050E5E5D02F10A009EF8015003EB000C93
:1039880005EB06251E5C9CF80100C5F34E0500EB0F
:10399800062080B2023C002842D1951D5E1996F897
:1039A80001C05D5DC7F102060CEB052CCCF34E0C93
:1039B80034441032C4F34F0402EB4C02660002EBAD
:1039C800440403EB040813F804E098F801404FEAB4
:1039D8004C0504EB0E24A4B28C4285DC374403EB7F
:1039E800070813F807E098F8017007EB0E27BFB235
:1039F8008F42FFF679AF02EB8C003718DA1913F80B
:103A080007C0527802EB0C2292B2D2B9421B324460
:103A1800981840789B5C084400EB032080B263E769
:103A28006D0804EB450C03EB0C0613F80CE07678F4
:103A3800013806EB0E26B6B28E42B8BF644680B295
:103A4800A9E70C1B3A4402EB440269E702F10C00B7
:103A58001844FDF706FE4FF0000904464FF00C0A23
:103A6800A14501DB00203FE7A4EB090509EB65054B
:103A78000AFB052606F110001844FDF7F2FD814205
:103A8800804614D306F114001844FDF7EAFD81427C
:103A980002D905F10109E3E718369819FDF7E1FDA8
:103AA8000C2F7FF421AFA1EB080840441CE72C46FB
:103AB800D6E740F23161014B014A39E7BEE300081D
:103AC80058EA000888E300082DE9F047D0F840904C
:103AD8008CB00446DDE914878A4616461D46B9F1BE
:103AE800000F2CD02C22002101A807F055FF01233C
:103AF8006A46514620460093FFF703F916B1A8B16C
:103B0800069B336015B198B1089B2B60B8F1000F84
:103B180003D078B1079BC8F800300FB160B938609E
:103B28004FF0010948460CB0BDE8F0870346E8E7C6
:103B38000346EAE70346EEE7099B3B60F0E7FEF73A
:103B48003BF8011EEEDB46B162688B1CD018D25CD4
:103B5800437803EB02231BB2336045B162680B1D47
:103B6800D018D25C437803EB02231BB22B60B8F168
:103B7800000F09D062688B1DD018D25C437803EB24
:103B880002231BB2C8F80030002FC9D0636808317F
:103B980058185A5C437803EB02231BB2CDE70000A8
:103BA8002DE9F04F066CB1B00D460B900C92002E2B
:103BB80040F00B834468FDF7FFFF0C9B00281E6054
:103BC800C0F26B822318225C5B7803EB02239FB25E
:103BD8001BB2002B40F34E8100F10A03E31808934F
:103BE80000EB47007B00109300F10A03E2185578B8
:103BF800E35C0C3005EB0325ADB205440E20089AB2
:103C08007B00023BD118D25C4B78254403EB02239E
:103C18009BB20793079A7B00134403FB000007F04D
:103C280063FC0446002800F038821C2303FB0703CA
:103C3800314618463246002A40F0A280297811F011
:103C4800080216BF6A7801350235DDF81CC0017319
:103C5800B44506F1010700F10E0000F38F80002142
:103C68001E460846327B02F01007920740F18D800D
:103C780015F8012B07B952421144079F26F80E1B6D
:103C8800874200F101027EDC002108461A7B5707B3
:103C980002F0200640F1868015F8012B06B9524241
:103CA8001144079E5980864200F1010203F10E0378
:103CB80076DC0025AB46AA4628462A462946A84669
:103CC800CDE909550D950B950E95109B03EB080949
:103CD8000E2303FB09F904EB090393F80CC0B3F9AD
:103CE80002700E9B34F9096098450CF00103129399
:103CF8006CD1B8F1000F0DD00A9BCDE904AB03934A
:103D0800099BCDE901030D9B204600930B9BFDF712
:103D180008FD0146129B83F001030B93129B83B9A4
:103D280009F10E0904EB0900B0F90220007B34F90F
:103D38000930C00743D5CDE9096717461E4608F183
:103D480001080E23012003FB01F2A3181873A652E1
:103D58004FF000025F809A80DA80089B089A03EB94
:103D6800450312F815205B78054403EB02239BB248
:103D7800034438460E930D96002246E03E465AE725
:103D8800013AD2B261E710466CE7002F7FF475AFB5
:103D98002F786A78023502EB072212B211446CE7D9
:103DA800104673E7002E7FF47CAF2E786A780235D0
:103DB80002EB062212B2114473E7984685E73344B2
:103DC8003A44CDE9096757105E10BAE7129BA3BBC6
:103DD800002A4BD00E234FF0030C03FB01FE04EB2B
:103DE8000E0383F80CC006EB0A0C4FEA6C0C24F89F
:103DF8000EC007EB0B0CA3F804A0A3F806B0B2465C
:103E0800BB464FEA6C0CA3F802C00131079E08F1CB
:103E180001034645D1DC0A9BCDE904AB0393099B1A
:103E2800CDE901030D9B204600930B9BFDF779FC20
:103E380083460C9B5E461C602FE19AB14FF0030944
:103E48000FFA8AF20FFA8BFC0E2303FB01FE04EB38
:103E58000E0383F80C9024F80E605F809A80A3F814
:103E680006C089E74FF002099446EDE7BB46B24623
:103E78000122CBE700F0A6810A302518B346344664
:103E880000232A7824936B7895F8029003EB022399
:103E98009AB2990795F803A00A9240F10B8113464C
:103EA800DB0795F9040095F9057040F1FA80FFB237
:103EB80007EB002000B2FCF7A3FFAB790D90E8797F
:103EC800083500EB032000B2FCF79AFF12900A9B1A
:103ED800180740F1F6802B786878023500EB03204C
:103EE80000B2FCF78DFF4FF06251FCF7DDFF07468B
:103EF800099000230893079339463846FCF7D4FF06
:103F0800079980460846FCF7CFFF01464046FCF774
:103F1800C3FEFCF73BFB0AF017F8CDE90E01089940
:103F28000846FCF7C1FF099980460846FCF7BCFF24
:103F380001464046FCF7B0FEFCF728FB0AF004F8FF
:103F4800CDE910010AEB09210B9824AA89B2FFF7E1
:103F580027FE031E139340F33081DDE90E01FCF7C1
:103F680045FE0E90DDE91001FCF740FE0E22DDF85B
:103F78009080139BC14653431090159303EB08029E
:103F8800B9F900001792FCF73BFF8246B9F9020025
:103F9800FCF736FF514614903846FCF785FF149914
:103FA80016900898FCF780FF01461698FCF774FEF7
:103FB8000D99FCF771FE0E99FCF776FFFDF73AF9BB
:103FC8005146A9F800000798FCF76EFF149982463D
:103FD8000998FCF769FF01465046FCF75DFE129907
:103FE800FCF75AFE1099FCF75FFFFDF723F9A9F8D3
:103FF8000200B9F90400FCF703FF8246B9F906008C
:10400800FCF7FEFE514614903846FCF74DFF16901B
:1040180014990898FCF748FF01461698FCF73CFEEF
:104028000D99FCF739FE0E99FCF73EFFFDF702F9F2
:104038005146A9F804000798FCF736FF1499824600
:104048000998FCF731FF01465046FCF725FE129906
:10405800FCF722FE1099FCF727FFFDF7EBF8179AFB
:10406800A9F8060009F10E094A4589D14FF00E0A50
:10407800DDF84C90D9440AFB09F007F035FA0746F9
:10408800002840F0818014B1204607F035FAB8F1D5
:10409800000F02D0404607F02FFA304631B0BDE895
:1040A800F08FFCF7ADFE0D903846FCF7A9FE0635FB
:1040B80012900CE740F22E715A4B5B4A5B4807F0AE
:1040C800F5F90A9B59061BD52B786878043500EB5F
:1040D800032000B2FCF794FE4FF06251FCF7E4FEB7
:1040E80015F8023C074615F8010C00EB032000B256
:1040F800FCF786FE4FF06251FCF7D6FE0990F8E611
:104108000A9B1A0637D52B786878083500EB032008
:1041180000B2FCF775FE4FF06251FCF7C5FE15F8CA
:10412800063C074615F8050C00EB032000B2FCF727
:1041380067FE4FF06251FCF7B7FE15F8043C079094
:1041480015F8030C00EB032000B2FCF759FE4FF002
:104158006251FCF7A9FE15F8023C089015F8010C0D
:1041680000EB032000B2FCF74BFE4FF06251FCF766
:104178009BFE0990C0E64FF07E53099300234FF051
:104188007E5708930793B7E6BBF1000F0AFB0BFABB
:1041980004DD1CB15246214608F0D5FA4146159A6D
:1041A80007EB0A0008F0CFFA14B1204607F0A4F98B
:1041B800404607F0A1F9CB463C460A9B9B063FF5D3
:1041C8005FAE36E69B461C4633E62C22002119A832
:1041D80007F0E2FB01233022002124A8189307F0FE
:1041E800DBFB29460B9818AAFEF78BFDB0B10E2011
:1041F800239C604307F078F90C9B2E9018602946A1
:104208000B9824AAFEF77DFD40B12F9EB4423FF4DF
:1042180044AF40F6E601064B064A4FE700260C9BE2
:104228001E603AE7BEE30008D4E9000888E3000806
:104238004AE50008BDE90008F0B5C46945682234BC
:104248002F192E5D7C7804EB0624A4B28C4217DD6E
:104258004AB1046A04EB81042F192E5D7C7804EBC3
:10426800062424B2146053B1026A89000231114451
:104278006A185278695C02EB012212B21A60F0BD2A
:1042880062B1066A671E06EB870605EB060CAF5D92
:104298009CF8016006EB072636B21660002BEED0BC
:1042A800026A091B02EB840202EB4101E0E72DE9F7
:1042B800F04F836A154685B0002B00F052814068A4
:1042C800C218C05C537803EB00239BB2012B40F06B
:1042D800B9809078D37803EB00239BB2002B40F091
:1042E800B180107A537A03EB00239BB202EB030CE4
:1042F8006746D25C9CF8013003EB02239BB20CEBBF
:1043080043030293029BBB4200F09C80BA78FB787F
:1043180003EB02239BB20CEB03021CF80300537857
:1043280003EB00239BB2022B0BD1964610795379ED
:1043380003EB00239BB202EB43030393039B7345F8
:1043480001D10237DEE79EF806009EF8073003EB3E
:1043580000239BB2D418A0780193E37803EB0023E1
:104368009BB2E018E65C437803EB06239BB2012B73
:1043780004D0022B26D00EF1020EDFE74FF0000921
:104388008378C67806EB0326B6B2013EB145F2DC67
:1043980009EB06084FEA680328F0010808F1040849
:1043A80000EB080A9AF801A010F808800AEB082A1E
:1043B8001FFA8AFA514501DA5E1EE7E744DD03F188
:1043C8000109E3E74FF0000A8678C37803EB062378
:1043D8009BB2013B9A45CEDC06260AEB03094FEA5D
:1043E800690906FB09F6043600EB060810F806B062
:1043F80098F8016006EB0B26B6B2B14202DA09F171
:10440800FF33E7E798F802B098F803A00AEB0B2A05
:104418001FFA8AFA514502DD09F1010ADAE798F82C
:10442800040098F8053003EB00239BB20B449B1B58
:104438000198165C607800EB062080B2012806D04F
:10444800022852D000234CE0581CF1D193E7A679FA
:10445800E07994F8048000EB0620667980B206EBD8
:104468000826B6B2042EEDD10028EBD15E000A363C
:1044780004EB060914F8068099F8016006EB082693
:10448800B6B204EB060814F8069098F8016006EB3B
:10449800092694F80890647AB6B204EB0924A4B209
:1044A8009C42CFDD731E98423FF765AFC418641075
:1044B800A600023608EB060918F806A099F801606C
:1044C80006EB0A26B6B2B54201DA631EEBE701DD58
:1044D800601CE8E799F8022099F8033003EB0223FF
:1044E8001BB2184605B0BDE8F08F2279637903EB5B
:1044F80002239BB2042BA5D1A279E37903EB022313
:104508009EB2002E9ED1A37A94F80B80607A08EBB5
:104518000328237A1FFA88F800EB032080B220448E
:10452800FDF737FA0746294604EB0800FDF731FA8C
:10453800227B637B03EB02239BB29F4245D2002878
:1045480043DBA37BE27B02EB032292B290423CDA8C
:1045580057434000103000EB4700225C23185B787B
:10456800BCE7446A002CBCD0426822449478D078D6
:1045780000EB042080B20028B3D0147A507A00EB04
:10458800042080B20128ACD11F464FF00608907A6B
:10459800D47A45EA014504EB0024A4B2013CA742C1
:1045A8009FDC3E19761008FB06F101F11200104459
:1045B800FDF757F8854201D2741EF0E701D9771C40
:1045C800EDE716315318525CC9E7334689E770B5F1
:1045D800044615461E46FFF75DF9334601462A464E
:1045E8002046BDE87040FFF727BE70B549B1C469E1
:1045F800456804342E192D5D747804EB052424B223
:104608000C604AB1C169446806316518645C697810
:1046180001EB042109B211604BB1C269416808324B
:104628008818895C427802EB012212B21A6070BDC8
:1046380038B5C36942680C46191D06335018D51899
:10464800515C4078D25C6B7800EB012003EB0223CD
:104658001BB200B2C01AFCF7D3FB01462046FCF798
:10466800D7FC38BD2DE9F04F1D46002387B0CDE9B2
:104678000233DDE91298DDE9146405AB019304AB5C
:104688001746009302AA03ABDDF840B0DDF844A05A
:10469800FFF71AFA98B9B9F1000F01D0C9F800006C
:1046A800B8F1000F02D00023C8F800300EB1002383
:1046B80033600CB10023236007B0BDE8F08FB9F177
:1046C800000F10D00298FCF79BFB3946FCF7ECFB77
:1046D8005946FCF7E1FAFBF759FF09F0A9FDFCF789
:1046E8005DFAC9F80000B8F1000F11D005984042F2
:1046F800FCF786FB2946FCF7D7FB5146FCF7CCFABA
:10470800FBF744FF09F094FDFCF748FAC8F80000ED
:104718007EB10498FCF774FB3946FCF7C5FB594693
:10472800FCF7BAFAFBF732FF09F006FDFCF736FA98
:104738003060002CC0D003984042FCF761FB29464A
:10474800FCF7B2FB5146FCF7A7FAFBF71FFF09F08D
:10475800F3FCFCF723FA2060AEE710B586B00B9C9B
:1047680005940A9C0494099C0394089C02940024D0
:1047780001940094FFF776FF06B010BD70B51E4691
:1047880004461546FFF786F8099B01460993089BDE
:104798002A460893079B20460793069B0693059B8A
:1047A8000593049B04933346BDE87040FFF75ABF56
:1047B80010B586B00B9C05940A9C0494099C03943C
:1047C800089C0294002401940094FFF7D7FF06B0D8
:1047D80010BD2DE9F04FA1B011932A9B0C460E9302
:1047E8002B9B14900C932C9B0C9912932D9B0E9839
:1047F80013932E9B0F9215932F9B1693309B109318
:10480800FCF70EFD002842D00C9D00230E210F9AC4
:104818001B9309930C32119898423ADC099B002BA0
:1048280000F0B381980006F05FFE0A90002800F0BF
:10483800AC8129462046FCF7EBFB00250146FCF736
:1048480033FBAB460D900B9500231B9300234FF0D1
:10485800FF369A464FF000090F9C119A4A4522DC10
:104868001B980A9A431B42F826300B9B012B00F039
:10487800A980C00006F038FE012383460B93002868
:10488800E2D10A9821B0BDE8F04F06F035BE0E9D82
:10489800BBE701FB03F0105C0133012802BF099854
:1048A80001300990B7E7217B0139032920D8DFE8D7
:1048B80001F00223395D002E1B9FA2BF0A9B7D1BBE
:1048C80043F82650B4F90000FCF79AFA8246B4F986
:1048D8000200FCF795FA791C034601361B91BBF1DF
:1048E800000F04D00BEBC7014BF837A048603D46DA
:1048F80009F101090E34B0E7B4F90000FCF780FAB9
:104908008246B4F90200FCF77BFA1B990346481C5F
:104918001B90BBF1000FEBD00BEBC1004BF831A0A3
:104928004360E5E7B4F900001793FCF769FA074616
:10493800B4F90200FCF764FA002305930D9B039079
:10494800049302978046B4F90600FCF759FA0190DF
:10495800B4F90400FCF754FA52460090179B5846E5
:104968001BA9FEF7FAFE4346BA46C1E7B4F90000B0
:104978001793FCF745FA0746B4F90200FCF740FA2A
:10498800002307930D9B0590069304978046B4F97E
:104998000A00FCF735FA0390B4F90800FCF730FA7E
:1049A8000290B4F90600FCF72BFA0190B4F9040060
:1049B800FCF726FA52460090179B58461BA9FDF7AC
:1049C8006BF9D0E7BBF1000F00F0DF80109B1BB143
:1049D8000C9B03F100430C9300231846099A9A4252
:1049E8002BDC142300FB033006F07EFD0446F8B1EF
:1049F8004FF000094F46CDF83490099B0D9A934229
:104A080021DC39462046FDF712F84FF0140904F16D
:104A180014060B9B9F4200F38480169B1498009306
:104A28003A462146159BFDF7B3FC204606F064FD87
:104A38000A9806F061FD584624E70A9A52F823209E
:104A480001331044CAE700250A9B0D9A0BEBC908ED
:104A580053F822300F9399445E1E08F1040317930C
:104A68000F9BAB4203DC0D9B01330D93C5E7179AEF
:104A780008EBC6035B6852F835101846199118936D
:104A8800FCF7A6FB002841D114237B43109A11930D
:104A980004EB030ADDE918311846002A39D0FCF77F
:104AA800BFFB00283AD133462E4608EBC60258F819
:104AB8003610CAF810000E9819931892FCF7F4F9FA
:104AC8001299FCF7E9F8189A119B5168E0500C9874
:104AD800FCF7EAF91399FCF7DFF8199BCAF8040008
:104AE80058F833100E9808EBC306FCF7DDF9129955
:104AF800FCF7D2F87168CAF808000C98FCF7D4F9EA
:104B08001399FCF7C9F80137CAF80C002E4601358D
:104B1800A6E7FCF767FB08B91098C4E701202B4605
:104B2800C3E7B446B046BCE80F001BAD0FC5DCF8C0
:104B38000030D6F804A02B600B9D504658F8101C86
:104B4800FCF750FBC8B1C446A8F1140EBEE80F002C
:104B5800ACE80F00DEF80030013DCCF80030A8F1D9
:104B68001408EAD109FB05450DF16C0CBCE80F00EF
:104B78000FC5DCF800302B6002E00B9B9D42F1D1A1
:104B88000B9B143601330B9343E721B0BDE8F08F3C
:104B98002DE9F04F95B0DDF87C900D461446494656
:104BA8000FAA1F460646DDF888A0FEF7F9FF002188
:104BB80080462846FCF70CFB002100285ED12046E1
:104BC800FCF706FB00B12C460EAB05930DAB049326
:104BD8000CAB03930BAB02931E9B49462A46304607
:104BE800019300972346FFF73DFD00210D9ADDF85C
:104BF8002CB00E98A2EB0B090C9A209B801ACDF8CA
:104C08004090119013910BB1C3F80090219B03B110
:104C18001860BAF1000F01D0CAF800B0239B03B1A5
:104C28001A60DDF83CA0B9F1000F1BD0D0B100FB31
:104C380009F0099206F058FC139098B13168099A66
:104C4800079101211E9BCDE904B2069103935246B8
:104C580043460E4902970194009510A8CDF8489054
:104C6800FFF7B7FD504606F047FC139803E00F988E
:104C780006F042FC002015B0BDE8F08F2046FCF796
:104C8800A7FA0028F3D125469EE700BF3333B33E89
:104C98002DE9F0410D4607991F4604461646FEF7D2
:104CA800F9FD0B9B32460B930A9B29460A93099BF5
:104CB8000993089BCDE90703069B204606933B46CC
:104CC800BDE8F041FFF764BF30B51C46002387B04C
:104CD8000D9D009305950C9D04950B9D03950A9DCC
:104CE800CDE90145FFF7D4FF07B030BD2DE9F04FFE
:104CF800CDB004460891664819460692FFF798FC1D
:104D080005460DAB0CAA0BA96148FFF76EFC0B9882
:104D1800FCF776F82946FCF7C7F8FCF78BFA0FABD7
:104D28000EAA07464D215A48FFF751FC0E98FCF78A
:104D380067F82946FCF7B8F8FCF77CFA06460698A7
:104D4800FBF7B8FA13AB039312AB029311AB0193C1
:104D580010AB099000932A462B464D214C48FFF78B
:104D680027FD139B1FFA86F9FB1800274C4405936F
:104D7800A4B2099BBB4203DC05984DB0BDE8F08F97
:104D88004FF0000B069B2A4613F8078017AB0393D6
:104D980016AB029315AB019314AB41463C48009304
:104DA8002B46FFF705FD149A169B29469B1A189364
:104DB800159A179BCDE902BB9B1A199319AB01935E
:104DC80018AB2A46009332484346FFF77DFFDDF8CB
:104DD80064A0059B8046A3EB0A01089B621E03EBB7
:104DE800610189B20AF1FF330B44A4EB09009BB2BD
:104DF80092B280B205F086FD18991AAA731A02EBCE
:104E08004303079358465B4682453ADD214A4FF0F3
:104E1800000CB2F800E005E00DF5987B0BEB4202C0
:104E280022F8C8EC1FFA8CF296420CF1010CF3DC64
:104E3800194A08EB030CB2F800E0002291420ADCA0
:104E48004FF0000C1FFA8CF296420CF1010C0DDCAD
:104E580001300B44D8E71CF801BBBBF1000F03D0AD
:104E6800DDF81CB02BF812E00132E7E70DF5987E6B
:104E78000EEB420232F8C82CDFF820E0AEF8002032
:104E8800E0E740464C4406F037FB0137A4B270E730
:104E9800A804002054010020000000200008006C35
:104EA80070B51D461446013B013A0B4402449BB2BF
:104EB80092B26C43049E002505F024FDAC4200D15B
:104EC80070BD36F8150005F063FD0135F6E7000002
:104ED8002DE9F04FA3B009900F46184600211C4653
:104EE8000A92FEF70DFC214602467148FEF7A4FA25
:104EF8000646002857D02C996D48FFF799FB0546C0
:104F080015AB14AA13A96A48FFF76FFB1398FBF7B0
:104F180077FF2946FBF7C8FFFCF78CF917AB16AAF1
:104F280004464D216248FFF752FB1698FBF768FFCD
:104F38002946FBF7B9FFFCF77DF905900A98FBF7BE
:104F4800B9F94FF000081BAB03931AAB029319ABE6
:104F5800019318AB2A460F9000934D212B465448D5
:104F6800FFF726FC099B1B9E5B100793059B2644B5
:104F78005B000693BDF81830DDF81C900D93FB1C00
:104F88009BB20893089A730002EB460292B20B9206
:104F9800069ADFF820A153430C9304EB67030E93A2
:104FA8000F9B434503DC304623B0BDE8F08F002754
:104FB8000A9B2A4613F808B01FAB03931EAB029353
:104FC8001DAB01931CAB5946394800932B46FFF79C
:104FD800EFFB1C9A1E9B1D9C9B1A20931F9B2A4625
:104FE8001B1B219321AB019320AB29460093CDE9EC
:104FF80002775B462E48FFF767FEDDE906324A4531
:1050080008BF3B46099A8346901C18440D9B80B202
:10501800C21808990B9B92B205F074FC0C9A264BA7
:1050280097420BDB0E9BE1180024490089B2219BB3
:105038009C4234DA4B1C00279BB229E0188805F003
:10504800A7FC0137EAE704FB02B0C05DF8B1059898
:1050580009EB070C821A60461044400080B2421CDB
:1050680092B21193109105F04DFCBAF8000005F0CA
:105078008FFCBAF8000005F08BFCBAF8000005F0C8
:1050880087FCBAF8000005F083FCDDE9101301374E
:10509800209ABA42D7DC0231013489B2C7E75846B0
:1050A80006F02AFA059B08F10108994478E700BF41
:1050B800A804002000000020540100202DE9F04140
:1050C80005460E461846002117461C46FEF718FBF3
:1050D800214602460748DDF81880FEF7ADF938B1D9
:1050E80043463A4631462846BDE8F041FFF7FEBD43
:1050F800BDE8F081A80400202DE9F04F884693B060
:10510800114606460793FFF793FA05460BAB0AAA22
:1051180009A93046FFF769FA0998FBF771FE294695
:10512800FBF7C2FE314CFCF785F84FF0000A274622
:10513800DFF8BC900590CDF8109098F8001059B998
:10514800049BA4EB0904FF1A079B03341F601C9BF4
:105158001C6013B0BDE8F08F3046FEF79BFB83461A
:1051680001460DAB30460CAAFFF766F811AB039366
:1051780010AB02930FAB01930EAB59462A4600932E
:105188002B46FFF7EAFA0E9B049A53449A42A8BFAB
:105198001A460F9B0492059A594613449945A8BF8D
:1051A8009946109B304653449F42B8BF1F46119BF7
:1051B80013449C4218F8012FB8BF1C46FFF777F834
:1051C80006900C98FBF71CFE2946FBF76DFEFCF7D2
:1051D80031F883460698FBF713FE2946FBF764FE71
:1051E800FCF728F80BEB00039A44A6E7C1BDF0FFD3
:1051F8003F420F002DE9F04F9BB0CDE90A01002195
:10520800184615461C46FEF77BFA214602465F48BB
:10521800249EFEF711F910B30EAB324629465B48BF
:1052280000930DABFFF768FF31465848FFF700FAC7
:10523800044611AB10AA0FA95448FFF7D6F90F98E6
:10524800FBF7DEFD2146FBF72FFEFBF7F3FF4FF0E0
:10525800000BDFF838810790297819B90E981BB030
:10526800BDE8F08F4046FEF715FB13AB01460590ED
:1052780012AA4046FEF7E0FF17AB15AF14AE039332
:1052880016AB224605990293019723460096FFF72D
:1052980064FA149A169BCDE902679B1A1893159A1B
:1052A800179B21469B1A199319AB019318AB0093CE
:1052B80022462B784046FFF707FDDDE9186909FB10
:1052C80006FA4FEA4A0A0690504606F00DF9304BA6
:1052D800524600211860074606F05EFB00222D4B5F
:1052E8001B8809932C4BB3F800E07300089396428F
:1052F80019DD069B07EB4200991800230FE091F88F
:1053080000A00133D446DDF824A03144BCF1000FDD
:1053180018BFF246DDF820C0A0F800A06044994507
:10532800EDDC0132E3E70B9B1599B2B21944079BF8
:10533800009719440A9B89B203EB0B0080B21FFA4D
:1053480089F3FFF7ADFD124B186806F0D5F80698FB
:1053580006F0D2F815F8012F05994046FEF7A7FF89
:1053680006461298FBF74CFD2146FBF79DFDFBF71F
:1053780061FF07463046FBF743FD2146FBF794FDE6
:10538800FBF758FF0744BB4466E700BFA8040020AA
:1053980034060020540100200000002030B500250C
:1053A80085B0CDE90155089D0C460095FFF722FF11
:1053B800204405B030BD37B5069D0C460095FFF773
:1053C8007DFE204403B030BD30B504461D4B85B08A
:1053D8001B781D4D8DF805301C4B2A781B788DF8ED
:1053E80004208DF806301A4B8DF809201B788DF8AB
:1053F8000A208DF80B208DF807308DF808308DF8CD
:105408000C308DF80D308DF80E308DF80F3002F01D
:10541800DDFE287805F0C2FA0D2C28BF002404F11F
:1054280010030DEB030414F80C0C05F0B7FA002177
:105438000846084A5388128805B0BDE8304005F090
:1054480061BA00BF88060020730200208906002088
:105458008A0600203C0000200323F0B5C3B00446B0
:105468000193FFF7B1FF4FF41633002203FB04F05A
:10547800C0F30723C0F307404FF480518DF80500AF
:1054880019488DF807208DF8063000F0F5FD052045
:1054980000F096FC042241F2B35314480DEB0201CC
:1054A80001F0F2FC4FF41674104F41F2B3534FF46D
:1054B8008072384602A901F093FE002502AE36F844
:1054C800020B013505F064FA802DF8D1013CECD1CE
:1054D80001224FF48051044800F0CEFD052000F071
:1054E8006FFC204643B0F0BD000C014008040020CA
:1054F80030B597B0142200210EA806F04DFA1422F8
:10550800002101A806F048FA182200210DEB02003C
:1055180006F042FA02254FF4803305220124CDE932
:105528000C23CDE913534FF4E0130CA8CDE90F4435
:10553800159300F0ADFD08B172B6FEE70F23CDE973
:1055480001354FF480630390CDE90430294601A862
:1055580000F060FF08B172B6FEE74FF4807306A84A
:105568000694079301F002F808B172B6FEE717B087
:1055780030BD00002DE9F047102698B000F0FCFB84
:10558800FFF7B6FF3246002111A806F005FAAD4B29
:1055980000249A69012542F040029A619A694FF005
:1055A800030A02F040020192019A9A694FF40078C6
:1055B80032439A619A694FF4007132400292029A1A
:1055C8009A69A14842F080029A619A694FF00209EB
:1055D80002F080020392039A9A694FF4805742F0CE
:1055E80008029A619A6902F008020492049A9A6978
:1055F80042F480729A619A6902F480720592059A5F
:105608009A6942F020029A619A6902F02002069291
:10561800069A9A6942F004029A619B69012203F092
:1056280004030793079B00F027FD00220221874807
:1056380000F022FD00224FF40061834800F01CFDB9
:1056480001224FF48051814800F016FD804811A9CD
:10565800CDE91245119600F029FC7B4811A9CDE946
:1056680011851394CDF850A000F020FC4FF480630E
:10567800754811A9CDE91134139400F017FC73484B
:1056880011A9CDE91195CDE9134900F00FFC0423C8
:105698006E4811A9CDE91134139400F007FC4FF4BA
:1056A8000063694811A9CDE91135CDE9134900F026
:1056B800FDFB664811A9CDE91175CDE9134A00F043
:1056C800F5FB324621460DA806F066F9324621461A
:1056D80014A806F061F94FF020435E480F220360DA
:1056E80003F5827343600623C0E902344FF4804314
:1056F800C0E90C340723CDE90A321A230C9311238D
:10570800CDE911520AA911AACDE915630F93C0E991
:105718000446C0E90644C0E90844C0E90A74846341
:105728000E96CDF84C9001F0FEFD034608B172B616
:10573800FEE749494948CA69494D42F48062CA614D
:105748004FF48272C0E90233C0E90433C0E906832A
:10575800C0E9083383620A23C0E90052C36201F03A
:105768003BFB08B172B6FEE74FF0FF333D483E4CB5
:10577800C0E900434FF48073836001F035FA0546B1
:1057880008B172B6FEE70146324611A806F004F9E0
:1057980041F61F43354C3648CDE90A55C4E90003A4
:1057A80041F287332046C4E90335A560A56101F0BD
:1057B8008DFF08B172B6FEE7204611A9119702F0D5
:1057C8006FF808B172B6FEE7CDE90A000AA92046CB
:1057D80002F066F9054608B172B6FEE701463246A0
:1057E8000AA806F0D9F81C22294611A8214CCDE9AF
:1057F800085506F0D1F8204B2046C4E900354FF68D
:10580800FF73A560C4E90335A56101F05FFF08B126
:1058180072B6FEE720460AA90A9702F041F808B1D5
:1058280072B6FEE7204601F07DFF08B172B6FEE7CA
:10583800CDE9080008A9204602F032F9F0B172B6A5
:10584800FEE700BF00100240001C0140000C0140B0
:10585800001801403805002000000140080400201D
:1058680000380040D80500200028004060040020CF
:10587800000800408005002000040040002360214B
:105888000822CDE911133C4811A91393159301F08F
:10589800A5FF074608B172B6FEE7374800F03AF9A7
:1058A8004FF6FF754723354E354A3046CDE9117717
:1058B800C6E90023B760F560B76101F007FF08B1DA
:1058C80072B6FEE7CDE9110011A9304602F0E8F8FA
:1058D80008B172B6FEE72B4801F008FE02F076FC2C
:1058E80002F09CFC0221284801F0CCF9274B032147
:1058F8001870254801F0C6F9254B187002F09CFC79
:1059080002F0BCFC08211C4802F0C8F805F084F835
:1059180002F05CFC1F4B187805F040F80720FFF7F1
:105928009BFD012000F04CFA2368DD63203D6B1CD1
:10593800F7D1002005F018F802F0D2FC1121124826
:1059480001F0A0F9144C1221E0700F4801F09AF907
:10595800132160700C4801F095F9012300222146BB
:10596800A0700948237001F0A1F802F081FE03F04D
:105978001BF904F0CBFAFAE780050020EC050020BB
:105988000010004060040020D805002072020020AA
:105998007002002073020020590600200E4B82B0CE
:1059A8009A6942F001029A619A6902F00102009232
:1059B800009ADA6942F08052DA61DB69074A03F03B
:1059C80080530193019B536823F0E06343F0007315
:1059D800536002B0704700BF001002400000014051
:1059E80007B50B4B02689A420FD100F04BFB094BED
:1059F800DA6942F00062DA610122DB6903F00063D0
:105A08000193019B044BC3F83C2403B05DF804FBED
:105A180000280040001002400000424210B5044631
:105A280086B01022002102A805F0B6FF2268174BA5
:105A38009A4228D103F5EC33DA69154842F48042DA
:105A4800DA61DA6902A902F480420092009A9A693E
:105A580042F008029A619B694FF4204203F0080360
:105A68000193019B0223CDE902230323059300F050
:105A78001DFA4FF4804100230548CDE9021302A91D
:105A8800049300F013FA06B010BD00BF00380040C0
:105A9800000C01401FB503681A4A93420CD11A4BF7
:105AA800DA6942F00202DA61DB6903F0020301936A
:105AB800019B05B05DF804FB144A934214D1124BC4
:105AC8001E20DA6942F00402DA610022DB6911461D
